:020000040800F2
:100000002804002039050008A1050008AD050008F6
:10001000B5050008BD050008C50500080000000082
:10002000000000000000000000000000CD050008F6
:10003000D905000800000000E5050008F1050008EA
:100040009105000891050008910500089105000838
:100050009105000891050008910500089105000828
:100060009105000891050008910500089105000818
:100070009105000891050008910500089105000808
:1000800091050008910500089105000891050008F8
:1000900091050008910500089105000891050008E8
:1000A00091050008910500089105000891050008D8
:1000B0009105000831260008910500089105000807
:1000C00091050008910500089105000891050008B8
:1000D0009105000885250008910500089105000894
:1000E0009105000891050008910500089105000898
:1000F0009105000891050008910500089105000888
:100100009105000891050008910500089105000877
:100110009105000891050008910500089105000867
:100120009105000891050008910500089105000857
:040130005FF808F17B
:10013400044B05481B1A062B02D9044B03B118477C
:10014400704700BF2B0000202800002000000000A2
:1001540005490648091A891001EBD171491002D0EA
:10016400034B03B1184770472800002028000020E3
:100174000000000010B5064C237843B9FFF7D8FF00
:10018400044B13B10448AFF300800123237010BD66
:1001940028040020000000000027000808B5084BD0
:1001A4001BB108490848AFF300800848036813B935
:1001B400BDE80840CCE7064B002BF9D09847F7E799
:1001C400000000002C040020002700082800002064
:1001D4000000000080B400AFFEE700BF80B400AFB1
:1001E4002F4A2F4B9B6943F0010393612D4A2D4BFA
:1001F4005B6843F0007353602B4A2B4B5B6843F0FE
:1002040020035360284B5B6803F02003002B42D08B
:10021400264A264BDB6843F08073D360244B0822C4
:100224001A61234B0222C3F8F020214B4FF4817250
:10023400C3F804231F4B204A1A604FF060431F4A3F
:10024400C3F8B02F4FF060431D4AC3F8802E4FF01F
:1002540060434FF0FF32C3F8002E1A4B174AC3F81D
:10026400B02F184A174B1B6843F480631360154B77
:100274004FF418621A60134B0222C3F80022114B88
:100284004FF080725A620F4B4FF080729A620D4B9E
:100294001822DA6200E000BFBD4680BC704700BF90
:1002A4000010024000000140002004E0F0ED00E0F6
:1002B400000004E0001000E0011A010055CEACC5B6
:1002C4000D000100001004E080B400AF064B074AA3
:1002D4001A62054B05225A62034B22229A6200BF1E
:1002E400BD4680BC704700BF001000E00010014014
:1002F40080B483B000AF786039604FF06043D3F8C6
:10030400803E03F00103002B20D04FF06043D3F86C
:10031400002E7B6822FA03F303F00103002B15D0AF
:1003240010E000BF4FF060427B6852F82330002B8E
:10033400F8D04FF060413B685A1C3A601A787B68E9
:1003440001F823203B681B78002BEAD100BF0C374F
:10035400BD4680BC704700BF80B483B000AF7860F6
:1003640039604FF06043D3F8803E03F00103002B63
:1003740018D04FF06043D3F8002E7B6822FA03F3C1
:1003840003F00103002B0DD000BF4FF060427B68E7
:1003940052F82330002BF8D04FF060417B683A6864
:1003A40041F8232000BF0C37BD4680BC704700BF16
:1003B40080B483B000AF00237B6002E07B6801332C
:1003C4007B607B6842F20F729342F7DD00BF00BF8F
:1003D4000C37BD4680BC704780B487B000AF7860EE
:1003E400396001233B6138E000233B6101237B61D9
:1003F4002FE07B699B007A6813441A687B6903F1D8
:100404008043013B9B0079680B441B689A421DDAC8
:100414007B699B007A6813441B68FB607B699B00C3
:100424007A681A447B6903F18043013B9B00796835
:100434000B441B6813607B6903F18043013B9B0001
:100444007A681344FA681A6001233B617B690133BB
:100454007B617A693B689A42CBDB3B69002BC3D151
:1004640000BF1C37BD4680BC704700BFB0B58CB020
:1004740000AF0023FB620023BB6200237B620023E6
:100484003B62274B3C1D1D460FCD0FC42B682360D8
:10049400FFF7A4FEFFF718FF224A224B1B6823F440
:1004A4007F2313601F4A1F4B1B6843F44C331360B4
:1004B40041F61F41052002F0EFF8FB6A0133FB62AD
:1004C400FFF776FF3B1D05211846FFF785FFFB6A02
:1004D4000A2B04D1144B1B680133134A1360FB6AC3
:1004E4000F2B0AD10F4B10221A613B1D0521184610
:1004F400FFF772FF0B4B10225A61FFF759FF3B1DA8
:1005040005211846FFF768FFFB6A142B01D100236D
:10051400FB62064B5B68FB61054BBB61CDE700BF2B
:10052400182700080010014044040020001004E0D3
:10053400041004E080B582B000AF114B7B60114B16
:100544003B6007E03B681A1D3A607A68111D7960C8
:1005540012681A603B680C4A9342F3D30D480E4963
:100564004FF000028842B8BF40F8042BFADB00F0D9
:1005740043F8FFF77BFF00BF0837BD4680BD00BFCF
:1005840034270008000000202800002080B400AFB9
:10059400FEE70000280400207C05002080B400AFA2
:1005A40000BFBD4680BC704780B400AFFEE700BF0B
:1005B40080B400AFFEE700BF80B400AFFEE700BF29
:1005C40080B400AFFEE700BF80B400AF00BFBD46FB
:1005D40080BC704780B400AF00BFBD4680BC70478C
:1005E40080B400AF00BFBD4680BC704780B400AF8C
:1005F40000BFBD4680BC704780B500AF154A154B9F
:100604001B6843F0010313601249124B5A68124BE2
:1006140013404B600F4A0F4B1B6823F0847323F481
:10062400803313600B4A0B4B1B6823F48023136045
:10063400084A084B5B6823F4FE035360054B4FF4F0
:100644001F029A6000F078F8044B4FF000629A6041
:1006540000BF80BD001002400000FFF800ED00E084
:1006640080B485B000AF0023FB600023BB6000238F
:100674007B602C4B5B6803F00C03FB60FB68042B72
:1006840007D0082B09D0002B33D1274B274A1A60F7
:1006940033E0254B254A1A602FE0224B5B6803F4B4
:1006A4007013BB601F4B5B6803F480337B60BB68D3
:1006B4009B0C0233BB607B68002B06D1BB681C4AD1
:1006C40002FB03F3184A136017E0164B5B6803F44C
:1006D4000033002B06D0BB68154A02FB03F3124A11
:1006E40013600AE0BB68114A02FB03F30E4A13606D
:1006F40003E00D4B0D4A1A6000BF0A4B5B6803F020
:10070400F0031B090B4AD35CDBB2FB60064B1A688F
:10071400FB6822FA03F3044A136000BF1437BD4692
:1007240080BC7047001002400000002000127A00D4
:1007340000093D000400002080B500AF00F002F87D
:1007440000BF80BD80B483B000AF00237B60002372
:100754003B603A4A394B1B6843F480331360374B90
:100764001B6803F400333B607B6801337B603B68A8
:10077400002B03D17B68B3F5A06FF0D12F4B1B681E
:1007840003F40033002B02D001233B6001E000237B
:100794003B603B68012B4BD1294A294B1B6843F032
:1007A40010031360264A264B1B6823F003031360CF
:1007B400234A234B1B6843F0020313601F4A1F4B59
:1007C4005B6853601D4A1D4B5B6853601B4A1B4B9F
:1007D4005B6843F480635360184A184B5B6823F4E6
:1007E4007C135360154A154B5B6843F4E81353605C
:1007F400124A124B1B6843F08073136000BF0F4B07
:100804001B6803F00073002BF9D00C4A0B4B5B6898
:1008140023F003035360094A084B5B6843F0020367
:10082400536000BF054B5B6803F00C03082BF9D140
:1008340000BF0C37BD4680BC704700BF00100240AB
:100844000020024080B483B000AF7860396007496B
:100854003B6823F0604323F07F037A6813438B6083
:1008640000BF0C37BD4680BC704700BF00ED00E000
:1008740080B485B000AF0346FB71FB79DB4303F022
:100884000703FB60FB681B02FB600D4BDB68BB606E
:10089400BA684FF6FF031340BB60BB6843F0BF6305
:1008A40043F40033BB60BA68FB681343BB60044A7B
:1008B400BB68D36000BF1437BD4680BC704700BF1F
:1008C40000ED00E090B585B000AF0446084611463F
:1008D4001A462346FB710346BB710B467B711346D4
:1008E4003B713B791846FFF7C3FFFA793B79C3F1B3
:1008F400040302FA03F3FB60BA793B790F2141FA4E
:1009040003F313401A46FB681343FB60FB6803F0D0
:100914000F03FB6012497B795B09DAB21446104B72
:1009240053F822307A7902F01F02012000FA02F211
:10093400134341F824300A487B7909497A790A44F7
:1009440092F80023D1B2FA68D2B21201D2B20A43A9
:10095400D2B2034483F8002300BF1437BD4690BDD0
:1009640000E100E090B484B000AF0346FB710B4695
:10097400BB7113467B71BB799B08FB73BB7903F096
:100984000303DBB29B00BB73274A274B9B6943F0ED
:10099400010393612548FB7B2449FA7B023251F819
:1009A4002220B97B0F2404FA01F1C9430A4002331F
:1009B40040F823201D4CFB7B1C49FA7B023251F882
:1009C4002220F879B97B00FA01F10A43023344F892
:1009D40023201749164B1B68BA79012000FA02F24A
:1009E40013430B607B7903F00103002B08D01049FB
:1009F4000F4BDB68BA79012000FA02F21343CB6093
:100A04007B7903F00203002B08D00949084B9B684B
:100A1400BA79012000FA02F213438B6000BF103749
:100A2400BD4690BC704700BF00100240000001406A
:100A34000004014080B500AF1C4B00221A611B4B1F
:100A44000022DA60194B14225A61184B00229A6171
:100A5400164B0022DA61154A144B1B6843F001035C
:100A640013601249114B5A68114B13404B600F4AE3
:100A74000E4B1B6823F0847323F4803313600B4AFA
:100A84000A4B1B6823F480231360084A074B5B68F6
:100A940023F4FE035360054B00229A6000214FF0BB
:100AA4000060FFF7CFFE00BF80BD00BF0010024012
:100AB4000000FFF880B400AF30BF00BFBD4680BC6B
:100AC400704700BF80B400AF72B600BFBD4680BCA3
:100AD400704700BF80B400AF62B600BFBD4680BCA3
:100AE400704700BF80B500AF104A104B1B6943F03C
:100AF400040313610E4A0E4BDB6943F08053D36148
:100B04000C4A0C4B5B6843F480735360094A094BED
:100B14001B6843F004031360064A064B1B6843F04A
:100B240002031360FFF7C6FF00BF80BD00ED00E0C5
:100B3400001002400070004080B400AF034B044A30
:100B4400DA6000BFBD4680BC704700BF00ED00E026
:100B54000400FA0580B485B000AF0346FB71FB794D
:100B6400FB60FB685B06FB600B4A0B4B9B6943F025
:100B740001039361094A094B5B6823F0E063536006
:100B84000649064B5A68FB6813434B6000BF143791
:100B9400BD4680BC704700BF001002400000014009
:100BA40080B584B000AF0346FB710023FB73FFF7ED
:100BB40041FF244A234B1B6843F48033136000BF76
:100BC400204B1B685B0C002BFAD01E4B4FF4806249
:100BD4005A60FB79023BFB711A491A4B5B68FA793C
:100BE400920413434B60174A164B5B6843F48033FB
:100BF4005360154A144B1B6843F032031360114AC7
:100C0400104B1B6843F08073136000BF0D4B1B68CF
:100C14005B0E002BFAD00B4A0A4B5B6843F00203CD
:100C2400536007E0074B5B689B08FB73FB7B03F097
:100C34000303FB73FB7B022BF4D100BF1037BD46CB
:100C440080BD00BF001002400020024080B483B089
:100C540000AF7860054A7B6843F0BF6343F4003318
:100C6400D36000BF0C37BD4680BC704700ED00E088
:100C740080B487B000AF786000237B6100233B61C0
:100C84000F23FB607B68DB78002B3AD0274BDB68B3
:100C9400DB4303F4E0631B0A7B617B69C3F1040358
:100CA4003B61FA687B6922FA03F3FB607B685B783B
:100CB4001A463B6902FA03F37B617B689B781A4608
:100CC400FB6813407A6913437B617B691B017B6179
:100CD400174A7B681B787969C9B213440A4683F8BA
:100CE4000023134A7B681B785B09DBB218467B68D8
:100CF4001B7803F01F03012101FA03F342F82030AB
:100D04000FE00B497B681B785B09DBB218467B68F4
:100D14001B7803F01F0301229A4000F1200341F8DD
:100D2400232000BF1C37BD4680BC704700ED00E0A7
:100D340000E100E080B483B000AF78603960074917
:100D44003B6823F0604323F07F037A6813438B608E
:100D540000BF0C37BD4680BC704700BF00ED00E00B
:100D640080B483B000AF03460A46FB711346BB71DF
:100D7400BB79002B06D00949084B1A69FB79134348
:100D84000B6106E00549054B1A69FB79DB43134007
:100D94000B6100BF0C37BD4680BC704700ED00E01E
:100DA40080B483B000AF78607B68042B06D1094A15
:100DB400084B1B6843F00403136005E0054A054B28
:100DC4001B6823F00403136000BF0C37BD4680BCCE
:100DD400704700BF10E000E080B582B000AF7860DB
:100DE4007B682F4A934208D10121042000F0F2FDD0
:100DF4000021042000F0EEFD4EE07B68294A934276
:100E040008D10121082000F0E5FD0021082000F0B0
:100E1400E1FD41E07B68244A934208D1012110207E
:100E240000F0D8FD0021102000F0D4FD34E07B68F0
:100E34001E4A934208D10121202000F0CBFD00215D
:100E4400202000F0C7FD27E07B68194A934208D1AF
:100E54000121402000F0BEFD0021402000F0BAFD39
:100E64001AE07B68134A934208D10121802000F0E4
:100E7400B1FD0021802000F0ADFD0DE07B680E4A3D
:100E8400934209D101214FF4807000F0A3FD0021A9
:100E94004FF4807000F09EFD00BF0837BD4680BD52
:100EA40000080140000C0140001001400014014002
:100EB40000180140001C01400020014080B500AF33
:100EC4000121012000F086FD0021012000F082FDB7
:100ED40000BF80BD80B489B000AF78603960002362
:100EE400FB6100233B610023BB610023FB60002303
:100EF4007B610023BB603B68DB7803F00F03FB617D
:100F04003B68DB7803F01003002B05D03B689B782B
:100F14001A46FB691343FB613B681B88DBB2002B59
:100F240044D07B681B687B610023BB6138E00122ED
:100F3400BB6902FA03F3FB603B681B881A46FB6833
:100F440013403B613A69FB689A4226D1BB699B0016
:100F5400FB600F22FB6802FA03F3BB60BB68DB4350
:100F64007A6913407B61FA69FB6802FA03F37A69D0
:100F740013437B613B68DB78282B05D10122BB69D5
:100F84009A407B685A6108E03B68DB78482B04D1BF
:100F94000122BB699A407B681A61BB690133BB615A
:100FA400BB69072BC3D97B687A691A603B681B88C5
:100FB400FF2B46D97B685B687B610023BB613AE009
:100FC400BB690833012202FA03F3FB603B681B8808
:100FD4001A46FB6813403B613A69FB689A4227D181
:100FE400BB699B00FB600F22FB6802FA03F3BB6042
:100FF400BB68DB437A6913407B61FA69FB6802FAD8
:1010040003F37A6913437B613B68DB78282B05D1B2
:10101400BB69083301229A407B685A613B68DB78DC
:10102400482B05D1BB69083301229A407B681A61B9
:10103400BB690133BB61BB69072BC1D97B687A6982
:101044005A6000BF2437BD4680BC704780B483B06B
:1010540000AF78607B684FF6FF721A807B680222CB
:101064009A707B680422DA7000BF0C37BD4680BCDE
:10107400704700BF80B485B000AF78600B467B80BA
:101084000023FB737B689A687B881340002B02D093
:101094000123FB7301E00023FB73FB7B1846143729
:1010A400BD4680BC704700BF80B483B000AF786099
:1010B4007B689B689BB218460C37BD4680BC704762
:1010C40080B485B000AF78600B467B800023FB734F
:1010D4007B68DA687B881340002B02D00123FB7302
:1010E40001E00023FB73FB7B18461437BD4680BC2C
:1010F400704700BF80B483B000AF78607B68DB6862
:101104009BB218460C37BD4680BC704780B483B090
:1011140000AF78600B467B807A887B681A6100BFD9
:101124000C37BD4680BC704780B483B000AF786094
:101134000B467B807A887B685A6100BF0C37BD46BA
:1011440080BC704780B483B000AF78600B467B806E
:1011540013467B707B78002B03D07A887B681A61F6
:1011640002E07A887B685A6100BF0C37BD4680BCB8
:10117400704700BF80B483B000AF78600B467B80BB
:101184007A887B68DA6000BF0C37BD4680BC704744
:1011940080B485B000AF78600B467B804FF4803319
:1011A400FB607B88FA681343FB607B68FA689A618A
:1011B4007A887B689A617B68FA689A617B689B6924
:1011C400FB607B689B69FB6000BF1437BD4680BC35
:1011D400704700BF80B485B000AF03460A46FB7178
:1011E4001346BB710023FB600C4B1B68FB60FA6861
:1011F4004FF680731340FB60FB791B01FA681343BD
:10120400FB60BB79FA681343FB60044AFB68136014
:1012140000BF1437BD4680BC704700BF00000140CA
:1012240080B483B000AF0346FB71044AFB791360BA
:1012340000BF0C37BD4680BC704700BF1C00204275
:1012440080B487B000AF78600B46FB7000233B612D
:101254000023FB6000237B610023BB607B68002BC1
:1012640003DA2E4BDB697B6102E02C4B5B687B610C
:101274007B681B0C03F00F03BB607B689BB23B6174
:101284007B6803F44013B3F5401F0AD17B6923F054
:1012940070637B61214A214B5B6823F07063536068
:1012A40021E07B6803F48013002B0ED00322BB687B
:1012B40002FA03F3FB60FB68DB437A6913407B614A
:1012C4007B6943F070637B610DE07B685B0D1B0100
:1012D4003A6902FA03F3DB437A6913407B617B6961
:1012E40043F070637B61FB78002B08D07B685B0D57
:1012F4001B013A6902FA03F37A6913437B617B6841
:10130400002B03DA054A7B69D36102E0034A7B6957
:10131400536000BF1C37BD4680BC704700000140CD
:1013240090B484B000AF03460A46FB711346BB7108
:101334000023FB60BB7903F003039B000F2202FA36
:1013440003F3FB601649BB799B08DBB21846144AC9
:10135400BB799B08DBB2023352F82320FB68DB43E2
:101364001A40831C41F823200D48BB799B08DBB24B
:101374001C460B4ABB799B08DBB2023352F823208C
:10138400F979BB7903F003039B0001FA03F31A43D1
:10139400A31C40F8232000BF1037BD4690BC704703
:1013A4000000014080B483B000AF7860034A7B68DA
:1013B400136000BF0C37BD4680BC7047DC00204280
:1013C40080B400AF134A134B1B6843F0010313604E
:1013D4001049104B5A68104B13404B600D4A0D4B8B
:1013E4001B6823F0847323F480331360094A094B88
:1013F4001B6823F480231360064A064B5B6823F4BE
:10140400FE035360034B4FF41F029A6000BFBD46B6
:1014140080BC7047001002400000FFF880B483B025
:1014240000AF7860134A134B1B6823F480331360B6
:10143400104A104B1B6823F4802313607B68B3F5B8
:10144400803F03D0B3F5802F07D00DE0094A094B44
:101454001B6843F48033136006E0064A054B1B689F
:1014640043F4A023136000BF00BF0C37BD4680BC0B
:10147400704700BF0010024080B582B000AF002367
:101484003B600023FB710023BB71312000F00EFB95
:101494000346BB713B6801333B603B68B3F5A06F07
:1014A40002D0BB79002BF0D0312000F0FFFA0346C4
:1014B400002B02D00123FB7101E00023FB71FB79B7
:1014C40018460837BD4680BD80B485B000AF0346DA
:1014D400FB710023FB600A4B1B68FB60FB6823F075
:1014E400F803FB60FB79DB00FA681343FB60044AF2
:1014F400FB68136000BF1437BD4680BC704700BF53
:101504000010024080B483B000AF0346FB71044A6C
:10151400FB79136000BF0C37BD4680BC704700BF29
:101524000000424280B485B000AF78603960002387
:10153400FB600A4B5B68FB60FB6823F47C13FB6075
:101544007A683B681343FA681343FB60034AFB68F9
:10155400536000BF1437BD4680BC70470010024082
:1015640080B483B000AF0346FB71044AFB79136077
:1015740000BF0C37BD4680BC704700BF60004242CC
:1015840080B485B000AF78600023FB60094B5B68D2
:10159400FB60FB6823F00303FB60FA687B6813437A
:1015A400FB60044AFB68536000BF1437BD4680BC2F
:1015B400704700BF0010024080B400AF044B5B686A
:1015C400DBB203F00C03DBB21846BD4680BC7047A7
:1015D4000010024080B485B000AF78600023FB6047
:1015E400094B5B68FB60FB6823F0F003FB60FA685F
:1015F4007B681343FB60044AFB68536000BF1437E5
:10160400BD4680BC704700BF0010024080B485B066
:1016140000AF78600023FB60094B5B68FB60FB68EC
:1016240023F4E063FB60FA687B681343FB60044ABD
:10163400FB68536000BF1437BD4680BC704700BFD1
:101644000010024080B485B000AF78600023FB60D6
:10165400094B5B68FB60FB6823F46053FB607B68A9
:10166400DB00FA681343FB60034AFB68536000BF66
:101674001437BD4680BC70470010024080B483B06C
:1016840000AF03460A46FB711346BB71BB79002BBE
:1016940008D00C490B4B1B78DAB2FB791343DBB24D
:1016A4000B7009E00749074B1B78DAB2FB79DB437F
:1016B400DBB21340DBB20B7000BF0C37BD4680BCFD
:1016C400704700BF0910024080B483B000AF786057
:1016D400034A7B68136000BF0C37BD4680BC70476B
:1016E400D800424280B485B000AF78600023FB602C
:1016F400094B5B68FB60FB6823F44043FB60FA68BA
:101704007B681343FB60044AFB68536000BF1437D3
:10171400BD4680BC704700BF0010024080B483B057
:1017240000AF0346FB710C4B00221A700A4B0022D7
:101734001A70FB79012B02D0042B04D007E0064B6E
:1017440001221A7003E0044B05221A7000BF00BF87
:101754000C37BD4680BC70472010024080B483B073
:1017640000AF0346FB71044AFB79136000BF0C37DA
:10177400BD4680BC704700BF8004424280B483B041
:1017840000AF78600549054B1A6A7B6813430B6206
:1017940000BF0C37BD4680BC704700BF001002403C
:1017A40080B483B000AF0346FB71044AFB79136035
:1017B40000BF0C37BD4680BC704700BF3C044242AA
:1017C40080B487B000AF786000237B6100233B6165
:1017D4000023FB600023BB604C4B5B6803F00C03ED
:1017E4007B617B69042B07D0082B09D0002B33D1F4
:1017F4007B68474A1A6033E07B68454A1A602FE0E9
:10180400424B5B6803F470133B61404B5B6803F429
:101814008033FB603B699B0C02333B61FB68002B0C
:1018240006D13B693B4A02FB03F27B681A6017E06E
:10183400364B5B6803F40033002B06D03B69354A12
:1018440002FB03F27B681A600AE03B69304A02FB40
:1018540003F27B681A6003E07B682D4A1A6000BFBC
:101864002A4B5B6803F0F0037B617B691B097B6196
:10187400294A7B6913441B78DBB2BB607B681A6816
:10188400BB68DA407B685A60204B5B6803F4E06312
:101894007B617B691B0A7B611F4A7B6913441B784C
:1018A400DBB2BB607B685A68BB68DA407B689A60CD
:1018B400164B5B6803F460537B617B69DB0A7B61D5
:1018C400154A7B6913441B78DBB2BB607B685A689A
:1018D400BB68DA407B68DA600C4B5B6803F4404316
:1018E4007B617B699B0B7B610C4A7B6913441B788E
:1018F400DBB2BB607B68DA68BB68B2FBF3F27B687F
:101904001A6100BF1C37BD4680BC704700100240FE
:1019140000127A0000093D00140000202400002079
:1019240080B483B000AF78600B46FB70FB78002B6B
:1019340006D00949084B5A697B6813434B6106E09A
:101944000549054B5A697B68DB4313404B6100BF73
:101954000C37BD4680BC70470010024080B483B091
:1019640000AF78600B46FB70FB78002B06D009496A
:10197400084B9A697B6813438B6106E00549054B64
:101984009A697B68DB4313408B6100BF0C37BD460B
:1019940080BC70470010024080B483B000AF786010
:1019A4000B46FB70FB78002B06D00949084BDA691B
:1019B4007B681343CB6106E00549054BDA697B6814
:1019C400DB431340CB6100BF0C37BD4680BC70477E
:1019D4000010024080B483B000AF78600B46FB7007
:1019E400FB78002B06D00949084BDA687B6813435F
:1019F400CB6006E00549054BDA687B68DB4313409E
:101A0400CB6000BF0C37BD4680BC7047001002405D
:101A140080B483B000AF78600B46FB70FB78002B7A
:101A240006D00949084B1A697B6813430B6106E029
:101A34000549054B1A697B68DB4313400B6100BF02
:101A44000C37BD4680BC70470010024080B483B0A0
:101A540000AF0346FB71044AFB79136000BF0C37E7
:101A6400BD4680BC704700BF4004424280B483B08E
:101A740000AF0346FB71044AFB79136000BF0C37C7
:101A8400BD4680BC704700BF4C00424280B483B066
:101A940000AF0346FB71044AFB79137000BF0C3797
:101AA400BD4680BC704700BF0710024080B487B0B9
:101AB40000AF0346FB710023FB6000237B6100231E
:101AC400FB74FB795B09DBB2FB60FB68012B03D180
:101AD400124B1B687B6109E0FB68022B03D10F4B9F
:101AE4001B6A7B6102E00D4B5B6A7B61FB7903F04F
:101AF4001F03FB607A69FB6822FA03F303F0010316
:101B0400002B02D00123FB7401E00023FB74FB7C57
:101B140018461C37BD4680BC704700BF0010024009
:101B240080B400AF044A044B5B6A43F08073536291
:101B340000BFBD4680BC70470010024080B485B031
:101B440000AF0346FB710023FB73084B9A68FB79D3
:101B54001340002B02D00123FB7301E00023FB732D
:101B6400FB7B18461437BD4680BC7047001002400A
:101B740080B483B000AF0346FB71044AFB79137051
:101B840000BF0C37BD4680BC704700BF0A1002403E
:101B940080B582B000AF78607B68264A93420AD150
:101BA40001214FF48040FFF715FF00214FF48040DE
:101BB400FFF710FF3AE07B681F4A93420AD10121E4
:101BC4004FF40030FFF724FF00214FF40030FFF7FB
:101BD4001FFF2BE07B68194A93420AD101214FF47D
:101BE4008020FFF715FF00214FF48020FFF710FF3E
:101BF4001CE07B68124A93420AD101214FF4002071
:101C0400FFF706FF00214FF40020FFF701FF0DE06E
:101C14007B680C4A934209D101214FF48010FFF7ED
:101C2400F7FE00214FF48010FFF7F2FE00BF0837E3
:101C3400BD4680BD003801400044004000480040DB
:101C4400004C00400050004080B58CB000AF78607C
:101C540039600023FB620023BB6200237B62002304
:101C64003B620023FB617B68FB617B681B8A9BB240
:101C7400FB62FA6A4CF6FF731340FB623B68DB8835
:101C84001A46FB6A1343FB62FB6A9AB27B681A82A8
:101C94007B689B899BB2FB62FA6A4EF6F31313408E
:101CA400FB623B689A883B681B8913439AB23B6882
:101CB4005B8913439BB21A46FB6A1343FB62FB6ABC
:101CC4009AB27B689A817B689B8A9BB2FB62FA6AB0
:101CD4004FF6FF431340FB623B689B891A46FB6A3D
:101CE4001343FB62FB6A9AB27B689A8207F108038A
:101CF4001846FFF765FDFB692E4A934202D17B69C2
:101D0400BB6201E03B69BB627B689B899BB21BB2EF
:101D1400002B0CDABA6A13469B0013449A001A4447
:101D24003B681B685B00B2FBF3F37B620BE0BA6AAF
:101D340013469B0013449A001A443B681B689B009B
:101D4400B2FBF3F37B627B6A1B4AA2FB03235B09AE
:101D54001B01FB62FB6A1B09642202FB03F37A6A20
:101D6400D31A3B627B689B899BB21BB2002B0CDAB3
:101D74003B6ADB003233104AA2FB03235B0903F006
:101D84000703FA6A1343FB620BE03B6A1B0132331D
:101D9400094AA2FB03235B0903F00F03FA6A134306
:101DA400FB62FB6A9AB27B681A8100BF3037BD467A
:101DB40080BD00BF003801401F85EB5180B483B063
:101DC40000AF78607B684FF416521A607B6800227B
:101DD4009A807B680022DA807B6800221A817B6803
:101DE4000C225A817B6800229A8100BF0C37BD46C1
:101DF40080BC704780B485B000AF78603960002340
:101E0400FB607B681B8A9BB2FB60FA684FF2FF039E
:101E14001340FB603B681A883B685B8813439AB2A3
:101E24003B689B8813439AB23B68DB8813439BB29D
:101E34001A46FB681343FB60FB689AB27B681A82FC
:101E440000BF1437BD4680BC704700BF80B483B068
:101E540000AF78607B6800221A807B6800225A8079
:101E64007B6800229A807B680022DA8000BF0C37EE
:101E7400BD4680BC704700BF80B483B000AF7860BB
:101E84000B46FB70FB78002B08D07B689B899BB2C8
:101E940043F400539AB27B689A8107E07B689B897C
:101EA4009BB223F400539AB27B689A8100BF0C372B
:101EB400BD4680BC704700BF80B487B000AF786077
:101EC4000B467B8013467B7000233B610023FB6041
:101ED4000023BB6000237B617B687B617B88DBB272
:101EE4005B09DBB23B617B8803F01F03FB600122CB
:101EF400FB6802FA03F3BB603B69012B03D17B69E6
:101F04000C337B6109E03B69022B03D17B691033FD
:101F14007B6102E07B6914337B617B78002B06D004
:101F24007B697A691168BA680A431A6006E07B69BA
:101F34007A691168BA68D2430A401A6000BF1C3734
:101F4400BD4680BC704700BF80B483B000AF7860EA
:101F54000B467B8013467B707B78002B08D07B6814
:101F64009B8A9AB27B8813439AB27B689A8209E06F
:101F74007B689B8A9AB27B88DB439BB213409AB2FC
:101F84007B689A8200BF0C37BD4680BC704700BF97
:101F940080B483B000AF78600B46FB707B681B8A0B
:101FA4009BB223F00F039AB27B681A827B681B8A68
:101FB4009AB2FB789BB213439AB27B681A8200BF31
:101FC4000C37BD4680BC704780B483B000AF7860E6
:101FD4000B467B807B689B899BB223F400639AB297
:101FE4007B689A817B689B899AB27B8813439AB2F7
:101FF4007B689A8100BF0C37BD4680BC704700BF28
:1020040080B483B000AF78600B46FB70FB78002B84
:1020140008D07B689B899BB243F002039AB27B6829
:102024009A8107E07B689B899BB223F002039AB2F2
:102034007B689A8100BF0C37BD4680BC704700BFE7
:1020440080B483B000AF78600B467B807B681B8ACA
:102054009BB223F020039AB27B681A827B681B8AA6
:102064009AB27B8813439AB27B681A8200BF0C37FA
:10207400BD4680BC704700BF80B483B000AF7860B9
:102084000B46FB70FB78002B08D07B681B8A9BB245
:1020940043F480439AB27B681A8207E07B681B8A08
:1020A4009BB223F480439AB27B681A8200BF0C3738
:1020B400BD4680BC704700BF80B483B000AF786079
:1020C4000B467B807B88C3F308039AB27B689A80B3
:1020D40000BF0C37BD4680BC704700BF80B483B0DE
:1020E40000AF78607B689B889BB2C3F308039BB204
:1020F40018460C37BD4680BC704700BF80B483B01F
:1021040000AF78607B689B899BB243F001039AB26D
:102114007B689A8100BF0C37BD4680BC704700BF06
:1021240080B483B000AF78600B46FB707B681B8B78
:102134009BB2DBB29AB27B681A837B681B8B9AB220
:10214400FB789BB21B029BB213439AB27B681A833F
:1021540000BF0C37BD4680BC704700BF80B483B05D
:1021640000AF78600B46FB707B681B8B9BB223F03F
:10217400FF039AB27B681A837B681B8B9AB2FB7845
:102184009BB213439AB27B681A8300BF0C37BD46D7
:1021940080BC704780B483B000AF78600B46FB709E
:1021A400FB78002B08D07B689B8A9BB243F020030A
:1021B4009AB27B689A8207E07B689B8A9BB223F081
:1021C40020039AB27B689A8200BF0C37BD4680BC5C
:1021D400704700BF80B483B000AF78600B46FB70DB
:1021E400FB78002B08D07B689B8A9BB243F01003DA
:1021F4009AB27B689A8207E07B689B8A9BB223F041
:1022040010039AB27B689A8200BF0C37BD4680BC2B
:10221400704700BF80B483B000AF78600B46FB709A
:10222400FB78002B08D07B689B8A9BB243F00803A1
:102234009AB27B689A8207E07B689B8A9BB223F000
:1022440008039AB27B689A8200BF0C37BD4680BCF3
:10225400704700BF80B483B000AF78600B46FB705A
:10226400FB78002B0AD07B689B899BB26FEA4343BF
:102274006FEA53439AB27B689A8107E07B689B8933
:102284009BB2C3F30E039AB27B689A8100BF0C37EA
:10229400BD4680BC704700BF80B483B000AF786097
:1022A4000B46FB70FB78002B08D07B689B8A9BB2A3
:1022B40043F400639AB27B689A8207E07B689B8A46
:1022C4009BB223F400639AB27B689A8200BF0C37F6
:1022D400BD4680BC704700BF80B483B000AF786057
:1022E4000B467B807B689B8A9BB223F004039AB2E3
:1022F4007B689A827B689B8A9AB27B8813439AB2E2
:102304007B689A8200BF0C37BD4680BC704700BF13
:1023140080B483B000AF78600B46FB70FB78002B71
:1023240008D07B689B8A9BB243F002039AB27B6815
:102334009A8207E07B689B8A9BB223F002039AB2DD
:102344007B689A8200BF0C37BD4680BC704700BFD3
:1023540080B485B000AF78600B467B800023FB73AC
:102364007B681B889AB27B8813409BB2002B02D0F7
:102374000123FB7301E00023FB73FB7B1846143736
:10238400BD4680BC704700BF80B483B000AF7860A6
:102394000B467B807B88DB439AB27B681A8000BF44
:1023A4000C37BD4680BC704780B487B000AF7860FE
:1023B4000B467B800023FB6000237B610023BB6012
:1023C4000023FB747B88DBB25B09DBB2BB607B88D8
:1023D40003F01F037B6101227B6902FA03F37B6133
:1023E400BB68012B07D17B689B899BB21A467B692A
:1023F40013407B6111E0BB68022B07D17B681B8A09
:102404009BB21A467B6913407B6106E07B689B8A1A
:102414009BB21A467B6913407B617B881B0A9BB283
:10242400FB600122FB6802FA03F3FB607B681B88F4
:102434009BB21A46FB681340FB607B69002B05D0F6
:10244400FB68002B02D00123FB7401E00023FB7422
:10245400FB7C18461C37BD4680BC704780B485B0F1
:1024640000AF78600B467B800023FB810023BB8197
:102474007B881B0AFB81FB89012202FA03F3BB81DF
:10248400BB89DB439AB27B681A8000BF1437BD4610
:1024940080BC704780B483B000AF786000BF18463A
:1024A4000C37BD4680BC704780B483B000AF786001
:1024B400396000BF084B1B889BB203F04003002B1C
:1024C400F8D0054B7A68D2B292B29A807B681846EB
:1024D4000C37BD4680BC70470038014080B588B0D9
:1024E40000AF7860012144F20400FFF737FA4FF49B
:1024F4000073BB830323BB771823FB7707F11C030B
:1025040019461D48FEF7E6FC4FF48063BB830423A1
:10251400FB7707F11C0319461748FEF7DBFC25235C
:102524003B7203237B720323BB720123FB7207F10B
:1025340008031846FEF79CFB7B68FB6000233B8284
:1025440000237B820023BB8200233B830C23FB827A
:1025540007F10C0319460948FFF776FB012240F204
:1025640025510648FFF7A8FC01210448FFF784FC25
:1025740000BF2037BD4680BD00080140003801403F
:1025840080B582B000AF40F225512548FFF70CFF1B
:102594000346002B3FD02248FFF7A0FD0346FB7102
:1025A400204B1B881BB2002B35DB1E4B1B8803F40E
:1025B4008043002B10D0FB790A2B03D0194B002247
:1025C4001A8028E0174B1B886FEA43436FEA534392
:1025D4009AB2144B1A801EE0FB790D2B07D1114BD4
:1025E4001B8843F480439AB20E4B1A8013E00D4BC0
:1025F4001B88C3F30D030C49FA79CA54094B1B8891
:1026040001339AB2074B1A80064B1B88C72B02D999
:10261400044B00221A8000BF0837BD4680BD00BFAE
:1026240000380140480400204C04002080B483B0EA
:1026340000AF00237B6001237B60154B1B8A9BB298
:1026440003F00103002B15D0124A124B1B6823F42C
:10265400806313607B68012B06D102237B607B6857
:10266400022B01D100237B600A4A0A4B1B6843F406
:1026740080631360064A064B1B8A9BB223F0010356
:102684009BB2138200BF0C37BD4680BC704700BFAD
:1026940000040040001004E080B582B000AF03469F
:1026A4000A46FB801346BB80124A124BDB6943F097
:1026B4000203D361104AFB8893850F4ABB881385B4
:1026C4000D4A0D4B9B899BB243F001039BB293814E
:1026D400094A094B1B889BB243F001039BB2138048
:1026E40002231D2203210120FEF7ECF800BF083766
:1026F400BD4680BD0010024000040040F8B500BF94
:10270400F8BC08BC9E467047F8B500BFF8BC08BCCE
:042714009E46704726
:102718002300000002000000EB0000000B00000096
:0427280002000000AB
:04272C00A1010008FF
:042730007901000823
:1027340000A24A040000000000000000010203049B
:102744000607080900000000010203040102030453
:0827540006070809020406084B
:10275C00000000000000000000000000000000006D
:10276C00000000000000000000000000000000005D
:10277C00000000000000000000000000000000004D
:10278C00000000000000000000000000000000003D
:0400000508000539B1
:00000001FF
